{
	"contracts/WalletStruct.sol": {
		"WalletStructContract": {
			"abi": [
				{
					"inputs": [
						{
							"internalType": "address",
							"name": "",
							"type": "address"
						}
					],
					"name": "balance",
					"outputs": [
						{
							"internalType": "uint256",
							"name": "total",
							"type": "uint256"
						},
						{
							"internalType": "uint256",
							"name": "numDeposits",
							"type": "uint256"
						},
						{
							"internalType": "uint256",
							"name": "numWithdrawals",
							"type": "uint256"
						}
					],
					"stateMutability": "view",
					"type": "function"
				},
				{
					"inputs": [],
					"name": "deposit",
					"outputs": [],
					"stateMutability": "payable",
					"type": "function"
				},
				{
					"inputs": [],
					"name": "getBalance",
					"outputs": [
						{
							"internalType": "uint256",
							"name": "",
							"type": "uint256"
						}
					],
					"stateMutability": "view",
					"type": "function"
				},
				{
					"inputs": [],
					"name": "getContractBalance",
					"outputs": [
						{
							"internalType": "uint256",
							"name": "",
							"type": "uint256"
						}
					],
					"stateMutability": "view",
					"type": "function"
				},
				{
					"inputs": [
						{
							"internalType": "uint256",
							"name": "amount",
							"type": "uint256"
						}
					],
					"name": "withdraw",
					"outputs": [],
					"stateMutability": "nonpayable",
					"type": "function"
				},
				{
					"inputs": [
						{
							"internalType": "address payable",
							"name": "to",
							"type": "address"
						},
						{
							"internalType": "uint256",
							"name": "amount",
							"type": "uint256"
						}
					],
					"name": "withdraw",
					"outputs": [],
					"stateMutability": "nonpayable",
					"type": "function"
				}
			],
			"devdoc": {
				"kind": "dev",
				"methods": {},
				"version": 1
			},
			"evm": {
				"assembly": "    /* \"contracts/WalletStruct.sol\":60:1657  contract WalletStructContract {... */\n  mstore(0x40, 0x80)\n  callvalue\n  dup1\n  iszero\n  tag_1\n  jumpi\n  0x00\n  dup1\n  revert\ntag_1:\n  pop\n  dataSize(sub_0)\n  dup1\n  dataOffset(sub_0)\n  0x00\n  codecopy\n  0x00\n  return\nstop\n\nsub_0: assembly {\n        /* \"contracts/WalletStruct.sol\":60:1657  contract WalletStructContract {... */\n      mstore(0x40, 0x80)\n      jumpi(tag_1, lt(calldatasize, 0x04))\n      shr(0xe0, calldataload(0x00))\n      dup1\n      0x12065fe0\n      eq\n      tag_2\n      jumpi\n      dup1\n      0x2e1a7d4d\n      eq\n      tag_3\n      jumpi\n      dup1\n      0x6f9fb98a\n      eq\n      tag_4\n      jumpi\n      dup1\n      0xd0e30db0\n      eq\n      tag_5\n      jumpi\n      dup1\n      0xe3d670d7\n      eq\n      tag_6\n      jumpi\n      dup1\n      0xf3fef3a3\n      eq\n      tag_7\n      jumpi\n    tag_1:\n      0x00\n      dup1\n      revert\n        /* \"contracts/WalletStruct.sol\":888:987  function getBalance() public view returns(uint) {... */\n    tag_2:\n      callvalue\n      dup1\n      iszero\n      tag_8\n      jumpi\n      0x00\n      dup1\n      revert\n    tag_8:\n      pop\n      tag_9\n      tag_10\n      jump\t// in\n    tag_9:\n      mload(0x40)\n      tag_11\n      swap2\n      swap1\n      tag_12\n      jump\t// in\n    tag_11:\n      mload(0x40)\n      dup1\n      swap2\n      sub\n      swap1\n      return\n        /* \"contracts/WalletStruct.sol\":1559:1654  function withdraw(uint amount) public {... */\n    tag_3:\n      callvalue\n      dup1\n      iszero\n      tag_13\n      jumpi\n      0x00\n      dup1\n      revert\n    tag_13:\n      pop\n      tag_14\n      0x04\n      dup1\n      calldatasize\n      sub\n      dup2\n      add\n      swap1\n      tag_15\n      swap2\n      swap1\n      tag_16\n      jump\t// in\n    tag_15:\n      tag_17\n      jump\t// in\n    tag_14:\n      stop\n        /* \"contracts/WalletStruct.sol\":995:1098  function getContractBalance() public view returns(uint) {... */\n    tag_4:\n      callvalue\n      dup1\n      iszero\n      tag_18\n      jumpi\n      0x00\n      dup1\n      revert\n    tag_18:\n      pop\n      tag_19\n      tag_20\n      jump\t// in\n    tag_19:\n      mload(0x40)\n      tag_21\n      swap2\n      swap1\n      tag_12\n      jump\t// in\n    tag_21:\n      mload(0x40)\n      dup1\n      swap2\n      sub\n      swap1\n      return\n        /* \"contracts/WalletStruct.sol\":444:783  function deposit() public payable  {... */\n    tag_5:\n      tag_22\n      tag_23\n      jump\t// in\n    tag_22:\n      stop\n        /* \"contracts/WalletStruct.sol\":386:429  mapping (address => Balance) public balance */\n    tag_6:\n      callvalue\n      dup1\n      iszero\n      tag_24\n      jumpi\n      0x00\n      dup1\n      revert\n    tag_24:\n      pop\n      tag_25\n      0x04\n      dup1\n      calldatasize\n      sub\n      dup2\n      add\n      swap1\n      tag_26\n      swap2\n      swap1\n      tag_27\n      jump\t// in\n    tag_26:\n      tag_28\n      jump\t// in\n    tag_25:\n      mload(0x40)\n      tag_29\n      swap4\n      swap3\n      swap2\n      swap1\n      tag_30\n      jump\t// in\n    tag_29:\n      mload(0x40)\n      dup1\n      swap2\n      sub\n      swap1\n      return\n        /* \"contracts/WalletStruct.sol\":1106:1551  function withdraw(address payable to, uint amount) public  {... */\n    tag_7:\n      callvalue\n      dup1\n      iszero\n      tag_31\n      jumpi\n      0x00\n      dup1\n      revert\n    tag_31:\n      pop\n      tag_32\n      0x04\n      dup1\n      calldatasize\n      sub\n      dup2\n      add\n      swap1\n      tag_33\n      swap2\n      swap1\n      tag_34\n      jump\t// in\n    tag_33:\n      tag_35\n      jump\t// in\n    tag_32:\n      stop\n        /* \"contracts/WalletStruct.sol\":888:987  function getBalance() public view returns(uint) {... */\n    tag_10:\n        /* \"contracts/WalletStruct.sol\":930:934  uint */\n      0x00\n        /* \"contracts/WalletStruct.sol\":954:961  balance */\n      dup1\n        /* \"contracts/WalletStruct.sol\":954:973  balance[msg.sender] */\n      0x00\n        /* \"contracts/WalletStruct.sol\":962:972  msg.sender */\n      caller\n        /* \"contracts/WalletStruct.sol\":954:973  balance[msg.sender] */\n      0xffffffffffffffffffffffffffffffffffffffff\n      and\n      0xffffffffffffffffffffffffffffffffffffffff\n      and\n      dup2\n      mstore\n      0x20\n      add\n      swap1\n      dup2\n      mstore\n      0x20\n      add\n      0x00\n      keccak256\n        /* \"contracts/WalletStruct.sol\":954:979  balance[msg.sender].total */\n      0x00\n      add\n      sload\n        /* \"contracts/WalletStruct.sol\":947:979  return balance[msg.sender].total */\n      swap1\n      pop\n        /* \"contracts/WalletStruct.sol\":888:987  function getBalance() public view returns(uint) {... */\n      swap1\n      jump\t// out\n        /* \"contracts/WalletStruct.sol\":1559:1654  function withdraw(uint amount) public {... */\n    tag_17:\n        /* \"contracts/WalletStruct.sol\":1608:1646  withdraw(payable (msg.sender), amount) */\n      tag_38\n        /* \"contracts/WalletStruct.sol\":1626:1636  msg.sender */\n      caller\n        /* \"contracts/WalletStruct.sol\":1639:1645  amount */\n      dup3\n        /* \"contracts/WalletStruct.sol\":1608:1616  withdraw */\n      tag_35\n        /* \"contracts/WalletStruct.sol\":1608:1646  withdraw(payable (msg.sender), amount) */\n      jump\t// in\n    tag_38:\n        /* \"contracts/WalletStruct.sol\":1559:1654  function withdraw(uint amount) public {... */\n      pop\n      jump\t// out\n        /* \"contracts/WalletStruct.sol\":995:1098  function getContractBalance() public view returns(uint) {... */\n    tag_20:\n        /* \"contracts/WalletStruct.sol\":1045:1049  uint */\n      0x00\n        /* \"contracts/WalletStruct.sol\":1069:1090  address(this).balance */\n      selfbalance\n        /* \"contracts/WalletStruct.sol\":1062:1090  return address(this).balance */\n      swap1\n      pop\n        /* \"contracts/WalletStruct.sol\":995:1098  function getContractBalance() public view returns(uint) {... */\n      swap1\n      jump\t// out\n        /* \"contracts/WalletStruct.sol\":444:783  function deposit() public payable  {... */\n    tag_23:\n        /* \"contracts/WalletStruct.sol\":519:528  msg.value */\n      callvalue\n        /* \"contracts/WalletStruct.sol\":490:497  balance */\n      0x00\n        /* \"contracts/WalletStruct.sol\":490:509  balance[msg.sender] */\n      dup1\n        /* \"contracts/WalletStruct.sol\":498:508  msg.sender */\n      caller\n        /* \"contracts/WalletStruct.sol\":490:509  balance[msg.sender] */\n      0xffffffffffffffffffffffffffffffffffffffff\n      and\n      0xffffffffffffffffffffffffffffffffffffffff\n      and\n      dup2\n      mstore\n      0x20\n      add\n      swap1\n      dup2\n      mstore\n      0x20\n      add\n      0x00\n      keccak256\n        /* \"contracts/WalletStruct.sol\":490:515  balance[msg.sender].total */\n      0x00\n      add\n      0x00\n        /* \"contracts/WalletStruct.sol\":490:528  balance[msg.sender].total += msg.value */\n      dup3\n      dup3\n      sload\n      tag_41\n      swap2\n      swap1\n      tag_42\n      jump\t// in\n    tag_41:\n      swap3\n      pop\n      pop\n      dup2\n      swap1\n      sstore\n      pop\n        /* \"contracts/WalletStruct.sol\":539:547  uint idx */\n      0x00\n        /* \"contracts/WalletStruct.sol\":550:557  balance */\n      dup1\n        /* \"contracts/WalletStruct.sol\":550:569  balance[msg.sender] */\n      0x00\n        /* \"contracts/WalletStruct.sol\":558:568  msg.sender */\n      caller\n        /* \"contracts/WalletStruct.sol\":550:569  balance[msg.sender] */\n      0xffffffffffffffffffffffffffffffffffffffff\n      and\n      0xffffffffffffffffffffffffffffffffffffffff\n      and\n      dup2\n      mstore\n      0x20\n      add\n      swap1\n      dup2\n      mstore\n      0x20\n      add\n      0x00\n      keccak256\n        /* \"contracts/WalletStruct.sol\":550:581  balance[msg.sender].numDeposits */\n      0x01\n      add\n      sload\n        /* \"contracts/WalletStruct.sol\":539:581  uint idx = balance[msg.sender].numDeposits */\n      swap1\n      pop\n        /* \"contracts/WalletStruct.sol\":637:646  msg.value */\n      callvalue\n        /* \"contracts/WalletStruct.sol\":594:601  balance */\n      0x00\n        /* \"contracts/WalletStruct.sol\":594:613  balance[msg.sender] */\n      dup1\n        /* \"contracts/WalletStruct.sol\":602:612  msg.sender */\n      caller\n        /* \"contracts/WalletStruct.sol\":594:613  balance[msg.sender] */\n      0xffffffffffffffffffffffffffffffffffffffff\n      and\n      0xffffffffffffffffffffffffffffffffffffffff\n      and\n      dup2\n      mstore\n      0x20\n      add\n      swap1\n      dup2\n      mstore\n      0x20\n      add\n      0x00\n      keccak256\n        /* \"contracts/WalletStruct.sol\":594:622  balance[msg.sender].deposits */\n      0x02\n      add\n        /* \"contracts/WalletStruct.sol\":594:627  balance[msg.sender].deposits[idx] */\n      0x00\n        /* \"contracts/WalletStruct.sol\":623:626  idx */\n      dup4\n        /* \"contracts/WalletStruct.sol\":594:627  balance[msg.sender].deposits[idx] */\n      dup2\n      mstore\n      0x20\n      add\n      swap1\n      dup2\n      mstore\n      0x20\n      add\n      0x00\n      keccak256\n        /* \"contracts/WalletStruct.sol\":594:634  balance[msg.sender].deposits[idx].amount */\n      0x00\n      add\n        /* \"contracts/WalletStruct.sol\":594:646  balance[msg.sender].deposits[idx].amount = msg.value */\n      dup2\n      swap1\n      sstore\n      pop\n        /* \"contracts/WalletStruct.sol\":703:718  block.timestamp */\n      timestamp\n        /* \"contracts/WalletStruct.sol\":657:664  balance */\n      0x00\n        /* \"contracts/WalletStruct.sol\":657:676  balance[msg.sender] */\n      dup1\n        /* \"contracts/WalletStruct.sol\":665:675  msg.sender */\n      caller\n        /* \"contracts/WalletStruct.sol\":657:676  balance[msg.sender] */\n      0xffffffffffffffffffffffffffffffffffffffff\n      and\n      0xffffffffffffffffffffffffffffffffffffffff\n      and\n      dup2\n      mstore\n      0x20\n      add\n      swap1\n      dup2\n      mstore\n      0x20\n      add\n      0x00\n      keccak256\n        /* \"contracts/WalletStruct.sol\":657:685  balance[msg.sender].deposits */\n      0x02\n      add\n        /* \"contracts/WalletStruct.sol\":657:690  balance[msg.sender].deposits[idx] */\n      0x00\n        /* \"contracts/WalletStruct.sol\":686:689  idx */\n      dup4\n        /* \"contracts/WalletStruct.sol\":657:690  balance[msg.sender].deposits[idx] */\n      dup2\n      mstore\n      0x20\n      add\n      swap1\n      dup2\n      mstore\n      0x20\n      add\n      0x00\n      keccak256\n        /* \"contracts/WalletStruct.sol\":657:700  balance[msg.sender].deposits[idx].timestamp */\n      0x01\n      add\n        /* \"contracts/WalletStruct.sol\":657:718  balance[msg.sender].deposits[idx].timestamp = block.timestamp */\n      dup2\n      swap1\n      sstore\n      pop\n        /* \"contracts/WalletStruct.sol\":764:765  1 */\n      0x01\n        /* \"contracts/WalletStruct.sol\":729:736  balance */\n      0x00\n        /* \"contracts/WalletStruct.sol\":729:748  balance[msg.sender] */\n      dup1\n        /* \"contracts/WalletStruct.sol\":737:747  msg.sender */\n      caller\n        /* \"contracts/WalletStruct.sol\":729:748  balance[msg.sender] */\n      0xffffffffffffffffffffffffffffffffffffffff\n      and\n      0xffffffffffffffffffffffffffffffffffffffff\n      and\n      dup2\n      mstore\n      0x20\n      add\n      swap1\n      dup2\n      mstore\n      0x20\n      add\n      0x00\n      keccak256\n        /* \"contracts/WalletStruct.sol\":729:760  balance[msg.sender].numDeposits */\n      0x01\n      add\n      0x00\n        /* \"contracts/WalletStruct.sol\":729:765  balance[msg.sender].numDeposits += 1 */\n      dup3\n      dup3\n      sload\n      tag_43\n      swap2\n      swap1\n      tag_42\n      jump\t// in\n    tag_43:\n      swap3\n      pop\n      pop\n      dup2\n      swap1\n      sstore\n      pop\n        /* \"contracts/WalletStruct.sol\":479:783  {... */\n      pop\n        /* \"contracts/WalletStruct.sol\":444:783  function deposit() public payable  {... */\n      jump\t// out\n        /* \"contracts/WalletStruct.sol\":386:429  mapping (address => Balance) public balance */\n    tag_28:\n      mstore(0x20, 0x00)\n      dup1\n      0x00\n      mstore\n      keccak256(0x00, 0x40)\n      0x00\n      swap2\n      pop\n      swap1\n      pop\n      dup1\n      0x00\n      add\n      sload\n      swap1\n      dup1\n      0x01\n      add\n      sload\n      swap1\n      dup1\n      0x03\n      add\n      sload\n      swap1\n      pop\n      dup4\n      jump\t// out\n        /* \"contracts/WalletStruct.sol\":1106:1551  function withdraw(address payable to, uint amount) public  {... */\n    tag_35:\n        /* \"contracts/WalletStruct.sol\":1222:1223  0 */\n      0x00\n        /* \"contracts/WalletStruct.sol\":1212:1218  amount */\n      dup2\n        /* \"contracts/WalletStruct.sol\":1184:1191  balance */\n      0x00\n        /* \"contracts/WalletStruct.sol\":1184:1203  balance[msg.sender] */\n      dup1\n        /* \"contracts/WalletStruct.sol\":1192:1202  msg.sender */\n      caller\n        /* \"contracts/WalletStruct.sol\":1184:1203  balance[msg.sender] */\n      0xffffffffffffffffffffffffffffffffffffffff\n      and\n      0xffffffffffffffffffffffffffffffffffffffff\n      and\n      dup2\n      mstore\n      0x20\n      add\n      swap1\n      dup2\n      mstore\n      0x20\n      add\n      0x00\n      keccak256\n        /* \"contracts/WalletStruct.sol\":1184:1209  balance[msg.sender].total */\n      0x00\n      add\n      sload\n        /* \"contracts/WalletStruct.sol\":1184:1218  balance[msg.sender].total - amount */\n      tag_45\n      swap2\n      swap1\n      tag_46\n      jump\t// in\n    tag_45:\n        /* \"contracts/WalletStruct.sol\":1184:1223  balance[msg.sender].total - amount >= 0 */\n      lt\n      iszero\n        /* \"contracts/WalletStruct.sol\":1176:1224  require(balance[msg.sender].total - amount >= 0) */\n      tag_47\n      jumpi\n      0x00\n      dup1\n      revert\n    tag_47:\n        /* \"contracts/WalletStruct.sol\":1263:1269  amount */\n      dup1\n        /* \"contracts/WalletStruct.sol\":1235:1242  balance */\n      0x00\n        /* \"contracts/WalletStruct.sol\":1235:1254  balance[msg.sender] */\n      dup1\n        /* \"contracts/WalletStruct.sol\":1243:1253  msg.sender */\n      caller\n        /* \"contracts/WalletStruct.sol\":1235:1254  balance[msg.sender] */\n      0xffffffffffffffffffffffffffffffffffffffff\n      and\n      0xffffffffffffffffffffffffffffffffffffffff\n      and\n      dup2\n      mstore\n      0x20\n      add\n      swap1\n      dup2\n      mstore\n      0x20\n      add\n      0x00\n      keccak256\n        /* \"contracts/WalletStruct.sol\":1235:1260  balance[msg.sender].total */\n      0x00\n      add\n      0x00\n        /* \"contracts/WalletStruct.sol\":1235:1269  balance[msg.sender].total -=amount */\n      dup3\n      dup3\n      sload\n      tag_48\n      swap2\n      swap1\n      tag_46\n      jump\t// in\n    tag_48:\n      swap3\n      pop\n      pop\n      dup2\n      swap1\n      sstore\n      pop\n        /* \"contracts/WalletStruct.sol\":1280:1288  uint idx */\n      0x00\n        /* \"contracts/WalletStruct.sol\":1291:1298  balance */\n      dup1\n        /* \"contracts/WalletStruct.sol\":1291:1310  balance[msg.sender] */\n      0x00\n        /* \"contracts/WalletStruct.sol\":1299:1309  msg.sender */\n      caller\n        /* \"contracts/WalletStruct.sol\":1291:1310  balance[msg.sender] */\n      0xffffffffffffffffffffffffffffffffffffffff\n      and\n      0xffffffffffffffffffffffffffffffffffffffff\n      and\n      dup2\n      mstore\n      0x20\n      add\n      swap1\n      dup2\n      mstore\n      0x20\n      add\n      0x00\n      keccak256\n        /* \"contracts/WalletStruct.sol\":1291:1325  balance[msg.sender].numWithdrawals */\n      0x03\n      add\n      sload\n        /* \"contracts/WalletStruct.sol\":1280:1325  uint idx = balance[msg.sender].numWithdrawals */\n      swap1\n      pop\n        /* \"contracts/WalletStruct.sol\":1382:1388  amount */\n      dup2\n        /* \"contracts/WalletStruct.sol\":1336:1343  balance */\n      0x00\n        /* \"contracts/WalletStruct.sol\":1336:1355  balance[msg.sender] */\n      dup1\n        /* \"contracts/WalletStruct.sol\":1344:1354  msg.sender */\n      caller\n        /* \"contracts/WalletStruct.sol\":1336:1355  balance[msg.sender] */\n      0xffffffffffffffffffffffffffffffffffffffff\n      and\n      0xffffffffffffffffffffffffffffffffffffffff\n      and\n      dup2\n      mstore\n      0x20\n      add\n      swap1\n      dup2\n      mstore\n      0x20\n      add\n      0x00\n      keccak256\n        /* \"contracts/WalletStruct.sol\":1336:1367  balance[msg.sender].withdrawals */\n      0x04\n      add\n        /* \"contracts/WalletStruct.sol\":1336:1372  balance[msg.sender].withdrawals[idx] */\n      0x00\n        /* \"contracts/WalletStruct.sol\":1368:1371  idx */\n      dup4\n        /* \"contracts/WalletStruct.sol\":1336:1372  balance[msg.sender].withdrawals[idx] */\n      dup2\n      mstore\n      0x20\n      add\n      swap1\n      dup2\n      mstore\n      0x20\n      add\n      0x00\n      keccak256\n        /* \"contracts/WalletStruct.sol\":1336:1379  balance[msg.sender].withdrawals[idx].amount */\n      0x00\n      add\n        /* \"contracts/WalletStruct.sol\":1336:1388  balance[msg.sender].withdrawals[idx].amount = amount */\n      dup2\n      swap1\n      sstore\n      pop\n        /* \"contracts/WalletStruct.sol\":1448:1463  block.timestamp */\n      timestamp\n        /* \"contracts/WalletStruct.sol\":1399:1406  balance */\n      0x00\n        /* \"contracts/WalletStruct.sol\":1399:1418  balance[msg.sender] */\n      dup1\n        /* \"contracts/WalletStruct.sol\":1407:1417  msg.sender */\n      caller\n        /* \"contracts/WalletStruct.sol\":1399:1418  balance[msg.sender] */\n      0xffffffffffffffffffffffffffffffffffffffff\n      and\n      0xffffffffffffffffffffffffffffffffffffffff\n      and\n      dup2\n      mstore\n      0x20\n      add\n      swap1\n      dup2\n      mstore\n      0x20\n      add\n      0x00\n      keccak256\n        /* \"contracts/WalletStruct.sol\":1399:1430  balance[msg.sender].withdrawals */\n      0x04\n      add\n        /* \"contracts/WalletStruct.sol\":1399:1435  balance[msg.sender].withdrawals[idx] */\n      0x00\n        /* \"contracts/WalletStruct.sol\":1431:1434  idx */\n      dup4\n        /* \"contracts/WalletStruct.sol\":1399:1435  balance[msg.sender].withdrawals[idx] */\n      dup2\n      mstore\n      0x20\n      add\n      swap1\n      dup2\n      mstore\n      0x20\n      add\n      0x00\n      keccak256\n        /* \"contracts/WalletStruct.sol\":1399:1445  balance[msg.sender].withdrawals[idx].timestamp */\n      0x01\n      add\n        /* \"contracts/WalletStruct.sol\":1399:1463  balance[msg.sender].withdrawals[idx].timestamp = block.timestamp */\n      dup2\n      swap1\n      sstore\n      pop\n        /* \"contracts/WalletStruct.sol\":1512:1513  1 */\n      0x01\n        /* \"contracts/WalletStruct.sol\":1474:1481  balance */\n      0x00\n        /* \"contracts/WalletStruct.sol\":1474:1493  balance[msg.sender] */\n      dup1\n        /* \"contracts/WalletStruct.sol\":1482:1492  msg.sender */\n      caller\n        /* \"contracts/WalletStruct.sol\":1474:1493  balance[msg.sender] */\n      0xffffffffffffffffffffffffffffffffffffffff\n      and\n      0xffffffffffffffffffffffffffffffffffffffff\n      and\n      dup2\n      mstore\n      0x20\n      add\n      swap1\n      dup2\n      mstore\n      0x20\n      add\n      0x00\n      keccak256\n        /* \"contracts/WalletStruct.sol\":1474:1508  balance[msg.sender].numWithdrawals */\n      0x03\n      add\n      0x00\n        /* \"contracts/WalletStruct.sol\":1474:1513  balance[msg.sender].numWithdrawals += 1 */\n      dup3\n      dup3\n      sload\n      tag_49\n      swap2\n      swap1\n      tag_42\n      jump\t// in\n    tag_49:\n      swap3\n      pop\n      pop\n      dup2\n      swap1\n      sstore\n      pop\n        /* \"contracts/WalletStruct.sol\":1524:1526  to */\n      dup3\n        /* \"contracts/WalletStruct.sol\":1524:1535  to.transfer */\n      0xffffffffffffffffffffffffffffffffffffffff\n      and\n        /* \"contracts/WalletStruct.sol\":1524:1543  to.transfer(amount) */\n      0x08fc\n        /* \"contracts/WalletStruct.sol\":1536:1542  amount */\n      dup4\n        /* \"contracts/WalletStruct.sol\":1524:1543  to.transfer(amount) */\n      swap1\n      dup2\n      iszero\n      mul\n      swap1\n      mload(0x40)\n      0x00\n      mload(0x40)\n      dup1\n      dup4\n      sub\n      dup2\n      dup6\n      dup9\n      dup9\n      call\n      swap4\n      pop\n      pop\n      pop\n      pop\n      iszero\n      dup1\n      iszero\n      tag_51\n      jumpi\n      returndatasize\n      0x00\n      dup1\n      returndatacopy\n      revert(0x00, returndatasize)\n    tag_51:\n      pop\n        /* \"contracts/WalletStruct.sol\":1165:1551  {... */\n      pop\n        /* \"contracts/WalletStruct.sol\":1106:1551  function withdraw(address payable to, uint amount) public  {... */\n      pop\n      pop\n      jump\t// out\n        /* \"#utility.yul\":7:84   */\n    tag_52:\n        /* \"#utility.yul\":44:51   */\n      0x00\n        /* \"#utility.yul\":73:78   */\n      dup2\n        /* \"#utility.yul\":62:78   */\n      swap1\n      pop\n        /* \"#utility.yul\":7:84   */\n      swap2\n      swap1\n      pop\n      jump\t// out\n        /* \"#utility.yul\":90:208   */\n    tag_53:\n        /* \"#utility.yul\":177:201   */\n      tag_70\n        /* \"#utility.yul\":195:200   */\n      dup2\n        /* \"#utility.yul\":177:201   */\n      tag_52\n      jump\t// in\n    tag_70:\n        /* \"#utility.yul\":172:175   */\n      dup3\n        /* \"#utility.yul\":165:202   */\n      mstore\n        /* \"#utility.yul\":90:208   */\n      pop\n      pop\n      jump\t// out\n        /* \"#utility.yul\":214:436   */\n    tag_12:\n        /* \"#utility.yul\":307:311   */\n      0x00\n        /* \"#utility.yul\":345:347   */\n      0x20\n        /* \"#utility.yul\":334:343   */\n      dup3\n        /* \"#utility.yul\":330:348   */\n      add\n        /* \"#utility.yul\":322:348   */\n      swap1\n      pop\n        /* \"#utility.yul\":358:429   */\n      tag_72\n        /* \"#utility.yul\":426:427   */\n      0x00\n        /* \"#utility.yul\":415:424   */\n      dup4\n        /* \"#utility.yul\":411:428   */\n      add\n        /* \"#utility.yul\":402:408   */\n      dup5\n        /* \"#utility.yul\":358:429   */\n      tag_53\n      jump\t// in\n    tag_72:\n        /* \"#utility.yul\":214:436   */\n      swap3\n      swap2\n      pop\n      pop\n      jump\t// out\n        /* \"#utility.yul\":523:640   */\n    tag_55:\n        /* \"#utility.yul\":632:633   */\n      0x00\n        /* \"#utility.yul\":629:630   */\n      dup1\n        /* \"#utility.yul\":622:634   */\n      revert\n        /* \"#utility.yul\":769:891   */\n    tag_57:\n        /* \"#utility.yul\":842:866   */\n      tag_77\n        /* \"#utility.yul\":860:865   */\n      dup2\n        /* \"#utility.yul\":842:866   */\n      tag_52\n      jump\t// in\n    tag_77:\n        /* \"#utility.yul\":835:840   */\n      dup2\n        /* \"#utility.yul\":832:867   */\n      eq\n        /* \"#utility.yul\":822:885   */\n      tag_78\n      jumpi\n        /* \"#utility.yul\":881:882   */\n      0x00\n        /* \"#utility.yul\":878:879   */\n      dup1\n        /* \"#utility.yul\":871:883   */\n      revert\n        /* \"#utility.yul\":822:885   */\n    tag_78:\n        /* \"#utility.yul\":769:891   */\n      pop\n      jump\t// out\n        /* \"#utility.yul\":897:1036   */\n    tag_58:\n        /* \"#utility.yul\":943:948   */\n      0x00\n        /* \"#utility.yul\":981:987   */\n      dup2\n        /* \"#utility.yul\":968:988   */\n      calldataload\n        /* \"#utility.yul\":959:988   */\n      swap1\n      pop\n        /* \"#utility.yul\":997:1030   */\n      tag_80\n        /* \"#utility.yul\":1024:1029   */\n      dup2\n        /* \"#utility.yul\":997:1030   */\n      tag_57\n      jump\t// in\n    tag_80:\n        /* \"#utility.yul\":897:1036   */\n      swap3\n      swap2\n      pop\n      pop\n      jump\t// out\n        /* \"#utility.yul\":1042:1371   */\n    tag_16:\n        /* \"#utility.yul\":1101:1107   */\n      0x00\n        /* \"#utility.yul\":1150:1152   */\n      0x20\n        /* \"#utility.yul\":1138:1147   */\n      dup3\n        /* \"#utility.yul\":1129:1136   */\n      dup5\n        /* \"#utility.yul\":1125:1148   */\n      sub\n        /* \"#utility.yul\":1121:1153   */\n      slt\n        /* \"#utility.yul\":1118:1237   */\n      iszero\n      tag_82\n      jumpi\n        /* \"#utility.yul\":1156:1235   */\n      tag_83\n      tag_55\n      jump\t// in\n    tag_83:\n        /* \"#utility.yul\":1118:1237   */\n    tag_82:\n        /* \"#utility.yul\":1276:1277   */\n      0x00\n        /* \"#utility.yul\":1301:1354   */\n      tag_84\n        /* \"#utility.yul\":1346:1353   */\n      dup5\n        /* \"#utility.yul\":1337:1343   */\n      dup3\n        /* \"#utility.yul\":1326:1335   */\n      dup6\n        /* \"#utility.yul\":1322:1344   */\n      add\n        /* \"#utility.yul\":1301:1354   */\n      tag_58\n      jump\t// in\n    tag_84:\n        /* \"#utility.yul\":1291:1354   */\n      swap2\n      pop\n        /* \"#utility.yul\":1247:1364   */\n      pop\n        /* \"#utility.yul\":1042:1371   */\n      swap3\n      swap2\n      pop\n      pop\n      jump\t// out\n        /* \"#utility.yul\":1377:1503   */\n    tag_59:\n        /* \"#utility.yul\":1414:1421   */\n      0x00\n        /* \"#utility.yul\":1454:1496   */\n      0xffffffffffffffffffffffffffffffffffffffff\n        /* \"#utility.yul\":1447:1452   */\n      dup3\n        /* \"#utility.yul\":1443:1497   */\n      and\n        /* \"#utility.yul\":1432:1497   */\n      swap1\n      pop\n        /* \"#utility.yul\":1377:1503   */\n      swap2\n      swap1\n      pop\n      jump\t// out\n        /* \"#utility.yul\":1509:1605   */\n    tag_60:\n        /* \"#utility.yul\":1546:1553   */\n      0x00\n        /* \"#utility.yul\":1575:1599   */\n      tag_87\n        /* \"#utility.yul\":1593:1598   */\n      dup3\n        /* \"#utility.yul\":1575:1599   */\n      tag_59\n      jump\t// in\n    tag_87:\n        /* \"#utility.yul\":1564:1599   */\n      swap1\n      pop\n        /* \"#utility.yul\":1509:1605   */\n      swap2\n      swap1\n      pop\n      jump\t// out\n        /* \"#utility.yul\":1611:1733   */\n    tag_61:\n        /* \"#utility.yul\":1684:1708   */\n      tag_89\n        /* \"#utility.yul\":1702:1707   */\n      dup2\n        /* \"#utility.yul\":1684:1708   */\n      tag_60\n      jump\t// in\n    tag_89:\n        /* \"#utility.yul\":1677:1682   */\n      dup2\n        /* \"#utility.yul\":1674:1709   */\n      eq\n        /* \"#utility.yul\":1664:1727   */\n      tag_90\n      jumpi\n        /* \"#utility.yul\":1723:1724   */\n      0x00\n        /* \"#utility.yul\":1720:1721   */\n      dup1\n        /* \"#utility.yul\":1713:1725   */\n      revert\n        /* \"#utility.yul\":1664:1727   */\n    tag_90:\n        /* \"#utility.yul\":1611:1733   */\n      pop\n      jump\t// out\n        /* \"#utility.yul\":1739:1878   */\n    tag_62:\n        /* \"#utility.yul\":1785:1790   */\n      0x00\n        /* \"#utility.yul\":1823:1829   */\n      dup2\n        /* \"#utility.yul\":1810:1830   */\n      calldataload\n        /* \"#utility.yul\":1801:1830   */\n      swap1\n      pop\n        /* \"#utility.yul\":1839:1872   */\n      tag_92\n        /* \"#utility.yul\":1866:1871   */\n      dup2\n        /* \"#utility.yul\":1839:1872   */\n      tag_61\n      jump\t// in\n    tag_92:\n        /* \"#utility.yul\":1739:1878   */\n      swap3\n      swap2\n      pop\n      pop\n      jump\t// out\n        /* \"#utility.yul\":1884:2213   */\n    tag_27:\n        /* \"#utility.yul\":1943:1949   */\n      0x00\n        /* \"#utility.yul\":1992:1994   */\n      0x20\n        /* \"#utility.yul\":1980:1989   */\n      dup3\n        /* \"#utility.yul\":1971:1978   */\n      dup5\n        /* \"#utility.yul\":1967:1990   */\n      sub\n        /* \"#utility.yul\":1963:1995   */\n      slt\n        /* \"#utility.yul\":1960:2079   */\n      iszero\n      tag_94\n      jumpi\n        /* \"#utility.yul\":1998:2077   */\n      tag_95\n      tag_55\n      jump\t// in\n    tag_95:\n        /* \"#utility.yul\":1960:2079   */\n    tag_94:\n        /* \"#utility.yul\":2118:2119   */\n      0x00\n        /* \"#utility.yul\":2143:2196   */\n      tag_96\n        /* \"#utility.yul\":2188:2195   */\n      dup5\n        /* \"#utility.yul\":2179:2185   */\n      dup3\n        /* \"#utility.yul\":2168:2177   */\n      dup6\n        /* \"#utility.yul\":2164:2186   */\n      add\n        /* \"#utility.yul\":2143:2196   */\n      tag_62\n      jump\t// in\n    tag_96:\n        /* \"#utility.yul\":2133:2196   */\n      swap2\n      pop\n        /* \"#utility.yul\":2089:2206   */\n      pop\n        /* \"#utility.yul\":1884:2213   */\n      swap3\n      swap2\n      pop\n      pop\n      jump\t// out\n        /* \"#utility.yul\":2219:2661   */\n    tag_30:\n        /* \"#utility.yul\":2368:2372   */\n      0x00\n        /* \"#utility.yul\":2406:2408   */\n      0x60\n        /* \"#utility.yul\":2395:2404   */\n      dup3\n        /* \"#utility.yul\":2391:2409   */\n      add\n        /* \"#utility.yul\":2383:2409   */\n      swap1\n      pop\n        /* \"#utility.yul\":2419:2490   */\n      tag_98\n        /* \"#utility.yul\":2487:2488   */\n      0x00\n        /* \"#utility.yul\":2476:2485   */\n      dup4\n        /* \"#utility.yul\":2472:2489   */\n      add\n        /* \"#utility.yul\":2463:2469   */\n      dup7\n        /* \"#utility.yul\":2419:2490   */\n      tag_53\n      jump\t// in\n    tag_98:\n        /* \"#utility.yul\":2500:2572   */\n      tag_99\n        /* \"#utility.yul\":2568:2570   */\n      0x20\n        /* \"#utility.yul\":2557:2566   */\n      dup4\n        /* \"#utility.yul\":2553:2571   */\n      add\n        /* \"#utility.yul\":2544:2550   */\n      dup6\n        /* \"#utility.yul\":2500:2572   */\n      tag_53\n      jump\t// in\n    tag_99:\n        /* \"#utility.yul\":2582:2654   */\n      tag_100\n        /* \"#utility.yul\":2650:2652   */\n      0x40\n        /* \"#utility.yul\":2639:2648   */\n      dup4\n        /* \"#utility.yul\":2635:2653   */\n      add\n        /* \"#utility.yul\":2626:2632   */\n      dup5\n        /* \"#utility.yul\":2582:2654   */\n      tag_53\n      jump\t// in\n    tag_100:\n        /* \"#utility.yul\":2219:2661   */\n      swap5\n      swap4\n      pop\n      pop\n      pop\n      pop\n      jump\t// out\n        /* \"#utility.yul\":2667:2771   */\n    tag_63:\n        /* \"#utility.yul\":2712:2719   */\n      0x00\n        /* \"#utility.yul\":2741:2765   */\n      tag_102\n        /* \"#utility.yul\":2759:2764   */\n      dup3\n        /* \"#utility.yul\":2741:2765   */\n      tag_59\n      jump\t// in\n    tag_102:\n        /* \"#utility.yul\":2730:2765   */\n      swap1\n      pop\n        /* \"#utility.yul\":2667:2771   */\n      swap2\n      swap1\n      pop\n      jump\t// out\n        /* \"#utility.yul\":2777:2915   */\n    tag_64:\n        /* \"#utility.yul\":2858:2890   */\n      tag_104\n        /* \"#utility.yul\":2884:2889   */\n      dup2\n        /* \"#utility.yul\":2858:2890   */\n      tag_63\n      jump\t// in\n    tag_104:\n        /* \"#utility.yul\":2851:2856   */\n      dup2\n        /* \"#utility.yul\":2848:2891   */\n      eq\n        /* \"#utility.yul\":2838:2909   */\n      tag_105\n      jumpi\n        /* \"#utility.yul\":2905:2906   */\n      0x00\n        /* \"#utility.yul\":2902:2903   */\n      dup1\n        /* \"#utility.yul\":2895:2907   */\n      revert\n        /* \"#utility.yul\":2838:2909   */\n    tag_105:\n        /* \"#utility.yul\":2777:2915   */\n      pop\n      jump\t// out\n        /* \"#utility.yul\":2921:3076   */\n    tag_65:\n        /* \"#utility.yul\":2975:2980   */\n      0x00\n        /* \"#utility.yul\":3013:3019   */\n      dup2\n        /* \"#utility.yul\":3000:3020   */\n      calldataload\n        /* \"#utility.yul\":2991:3020   */\n      swap1\n      pop\n        /* \"#utility.yul\":3029:3070   */\n      tag_107\n        /* \"#utility.yul\":3064:3069   */\n      dup2\n        /* \"#utility.yul\":3029:3070   */\n      tag_64\n      jump\t// in\n    tag_107:\n        /* \"#utility.yul\":2921:3076   */\n      swap3\n      swap2\n      pop\n      pop\n      jump\t// out\n        /* \"#utility.yul\":3082:3572   */\n    tag_34:\n        /* \"#utility.yul\":3158:3164   */\n      0x00\n        /* \"#utility.yul\":3166:3172   */\n      dup1\n        /* \"#utility.yul\":3215:3217   */\n      0x40\n        /* \"#utility.yul\":3203:3212   */\n      dup4\n        /* \"#utility.yul\":3194:3201   */\n      dup6\n        /* \"#utility.yul\":3190:3213   */\n      sub\n        /* \"#utility.yul\":3186:3218   */\n      slt\n        /* \"#utility.yul\":3183:3302   */\n      iszero\n      tag_109\n      jumpi\n        /* \"#utility.yul\":3221:3300   */\n      tag_110\n      tag_55\n      jump\t// in\n    tag_110:\n        /* \"#utility.yul\":3183:3302   */\n    tag_109:\n        /* \"#utility.yul\":3341:3342   */\n      0x00\n        /* \"#utility.yul\":3366:3427   */\n      tag_111\n        /* \"#utility.yul\":3419:3426   */\n      dup6\n        /* \"#utility.yul\":3410:3416   */\n      dup3\n        /* \"#utility.yul\":3399:3408   */\n      dup7\n        /* \"#utility.yul\":3395:3417   */\n      add\n        /* \"#utility.yul\":3366:3427   */\n      tag_65\n      jump\t// in\n    tag_111:\n        /* \"#utility.yul\":3356:3427   */\n      swap3\n      pop\n        /* \"#utility.yul\":3312:3437   */\n      pop\n        /* \"#utility.yul\":3476:3478   */\n      0x20\n        /* \"#utility.yul\":3502:3555   */\n      tag_112\n        /* \"#utility.yul\":3547:3554   */\n      dup6\n        /* \"#utility.yul\":3538:3544   */\n      dup3\n        /* \"#utility.yul\":3527:3536   */\n      dup7\n        /* \"#utility.yul\":3523:3545   */\n      add\n        /* \"#utility.yul\":3502:3555   */\n      tag_58\n      jump\t// in\n    tag_112:\n        /* \"#utility.yul\":3492:3555   */\n      swap2\n      pop\n        /* \"#utility.yul\":3447:3565   */\n      pop\n        /* \"#utility.yul\":3082:3572   */\n      swap3\n      pop\n      swap3\n      swap1\n      pop\n      jump\t// out\n        /* \"#utility.yul\":3578:3758   */\n    tag_66:\n        /* \"#utility.yul\":3626:3703   */\n      0x4e487b7100000000000000000000000000000000000000000000000000000000\n        /* \"#utility.yul\":3623:3624   */\n      0x00\n        /* \"#utility.yul\":3616:3704   */\n      mstore\n        /* \"#utility.yul\":3723:3727   */\n      0x11\n        /* \"#utility.yul\":3720:3721   */\n      0x04\n        /* \"#utility.yul\":3713:3728   */\n      mstore\n        /* \"#utility.yul\":3747:3751   */\n      0x24\n        /* \"#utility.yul\":3744:3745   */\n      0x00\n        /* \"#utility.yul\":3737:3752   */\n      revert\n        /* \"#utility.yul\":3764:4069   */\n    tag_42:\n        /* \"#utility.yul\":3804:3807   */\n      0x00\n        /* \"#utility.yul\":3823:3843   */\n      tag_115\n        /* \"#utility.yul\":3841:3842   */\n      dup3\n        /* \"#utility.yul\":3823:3843   */\n      tag_52\n      jump\t// in\n    tag_115:\n        /* \"#utility.yul\":3818:3843   */\n      swap2\n      pop\n        /* \"#utility.yul\":3857:3877   */\n      tag_116\n        /* \"#utility.yul\":3875:3876   */\n      dup4\n        /* \"#utility.yul\":3857:3877   */\n      tag_52\n      jump\t// in\n    tag_116:\n        /* \"#utility.yul\":3852:3877   */\n      swap3\n      pop\n        /* \"#utility.yul\":4011:4012   */\n      dup3\n        /* \"#utility.yul\":3943:4009   */\n      0xffffffffffffffffffffffffffffffffffffffffffffffffffffffffffffffff\n        /* \"#utility.yul\":3939:4013   */\n      sub\n        /* \"#utility.yul\":3936:3937   */\n      dup3\n        /* \"#utility.yul\":3933:4014   */\n      gt\n        /* \"#utility.yul\":3930:4037   */\n      iszero\n      tag_117\n      jumpi\n        /* \"#utility.yul\":4017:4035   */\n      tag_118\n      tag_66\n      jump\t// in\n    tag_118:\n        /* \"#utility.yul\":3930:4037   */\n    tag_117:\n        /* \"#utility.yul\":4061:4062   */\n      dup3\n        /* \"#utility.yul\":4058:4059   */\n      dup3\n        /* \"#utility.yul\":4054:4063   */\n      add\n        /* \"#utility.yul\":4047:4063   */\n      swap1\n      pop\n        /* \"#utility.yul\":3764:4069   */\n      swap3\n      swap2\n      pop\n      pop\n      jump\t// out\n        /* \"#utility.yul\":4075:4266   */\n    tag_46:\n        /* \"#utility.yul\":4115:4119   */\n      0x00\n        /* \"#utility.yul\":4135:4155   */\n      tag_120\n        /* \"#utility.yul\":4153:4154   */\n      dup3\n        /* \"#utility.yul\":4135:4155   */\n      tag_52\n      jump\t// in\n    tag_120:\n        /* \"#utility.yul\":4130:4155   */\n      swap2\n      pop\n        /* \"#utility.yul\":4169:4189   */\n      tag_121\n        /* \"#utility.yul\":4187:4188   */\n      dup4\n        /* \"#utility.yul\":4169:4189   */\n      tag_52\n      jump\t// in\n    tag_121:\n        /* \"#utility.yul\":4164:4189   */\n      swap3\n      pop\n        /* \"#utility.yul\":4208:4209   */\n      dup3\n        /* \"#utility.yul\":4205:4206   */\n      dup3\n        /* \"#utility.yul\":4202:4210   */\n      lt\n        /* \"#utility.yul\":4199:4233   */\n      iszero\n      tag_122\n      jumpi\n        /* \"#utility.yul\":4213:4231   */\n      tag_123\n      tag_66\n      jump\t// in\n    tag_123:\n        /* \"#utility.yul\":4199:4233   */\n    tag_122:\n        /* \"#utility.yul\":4258:4259   */\n      dup3\n        /* \"#utility.yul\":4255:4256   */\n      dup3\n        /* \"#utility.yul\":4251:4260   */\n      sub\n        /* \"#utility.yul\":4243:4260   */\n      swap1\n      pop\n        /* \"#utility.yul\":4075:4266   */\n      swap3\n      swap2\n      pop\n      pop\n      jump\t// out\n\n    auxdata: 0xa2646970667358221220f9420ff60a5b612a117c3eb2621719b9f84eda2c63e9d098f3781e758771e36664736f6c634300080f0033\n}\n",
				"bytecode": {
					"linkReferences": {},
					"object": "608060405234801561001057600080fd5b50610893806100206000396000f3fe6080604052600436106100555760003560e01c806312065fe01461005a5780632e1a7d4d146100855780636f9fb98a146100ae578063d0e30db0146100d9578063e3d670d7146100e3578063f3fef3a314610122575b600080fd5b34801561006657600080fd5b5061006f61014b565b60405161007c91906105eb565b60405180910390f35b34801561009157600080fd5b506100ac60048036038101906100a79190610637565b610194565b005b3480156100ba57600080fd5b506100c36101a1565b6040516100d091906105eb565b60405180910390f35b6100e16101a9565b005b3480156100ef57600080fd5b5061010a600480360381019061010591906106c2565b610357565b604051610119939291906106ef565b60405180910390f35b34801561012e57600080fd5b5061014960048036038101906101449190610764565b610381565b005b60008060003373ffffffffffffffffffffffffffffffffffffffff1673ffffffffffffffffffffffffffffffffffffffff16815260200190815260200160002060000154905090565b61019e3382610381565b50565b600047905090565b346000803373ffffffffffffffffffffffffffffffffffffffff1673ffffffffffffffffffffffffffffffffffffffff16815260200190815260200160002060000160008282546101fa91906107d3565b9250508190555060008060003373ffffffffffffffffffffffffffffffffffffffff1673ffffffffffffffffffffffffffffffffffffffff168152602001908152602001600020600101549050346000803373ffffffffffffffffffffffffffffffffffffffff1673ffffffffffffffffffffffffffffffffffffffff168152602001908152602001600020600201600083815260200190815260200160002060000181905550426000803373ffffffffffffffffffffffffffffffffffffffff1673ffffffffffffffffffffffffffffffffffffffff16815260200190815260200160002060020160008381526020019081526020016000206001018190555060016000803373ffffffffffffffffffffffffffffffffffffffff1673ffffffffffffffffffffffffffffffffffffffff168152602001908152602001600020600101600082825461034d91906107d3565b9250508190555050565b60006020528060005260406000206000915090508060000154908060010154908060030154905083565b6000816000803373ffffffffffffffffffffffffffffffffffffffff1673ffffffffffffffffffffffffffffffffffffffff168152602001908152602001600020600001546103d09190610829565b10156103db57600080fd5b806000803373ffffffffffffffffffffffffffffffffffffffff1673ffffffffffffffffffffffffffffffffffffffff168152602001908152602001600020600001600082825461042c9190610829565b9250508190555060008060003373ffffffffffffffffffffffffffffffffffffffff1673ffffffffffffffffffffffffffffffffffffffff168152602001908152602001600020600301549050816000803373ffffffffffffffffffffffffffffffffffffffff1673ffffffffffffffffffffffffffffffffffffffff168152602001908152602001600020600401600083815260200190815260200160002060000181905550426000803373ffffffffffffffffffffffffffffffffffffffff1673ffffffffffffffffffffffffffffffffffffffff16815260200190815260200160002060040160008381526020019081526020016000206001018190555060016000803373ffffffffffffffffffffffffffffffffffffffff1673ffffffffffffffffffffffffffffffffffffffff168152602001908152602001600020600301600082825461057f91906107d3565b925050819055508273ffffffffffffffffffffffffffffffffffffffff166108fc839081150290604051600060405180830381858888f193505050501580156105cc573d6000803e3d6000fd5b50505050565b6000819050919050565b6105e5816105d2565b82525050565b600060208201905061060060008301846105dc565b92915050565b600080fd5b610614816105d2565b811461061f57600080fd5b50565b6000813590506106318161060b565b92915050565b60006020828403121561064d5761064c610606565b5b600061065b84828501610622565b91505092915050565b600073ffffffffffffffffffffffffffffffffffffffff82169050919050565b600061068f82610664565b9050919050565b61069f81610684565b81146106aa57600080fd5b50565b6000813590506106bc81610696565b92915050565b6000602082840312156106d8576106d7610606565b5b60006106e6848285016106ad565b91505092915050565b600060608201905061070460008301866105dc565b61071160208301856105dc565b61071e60408301846105dc565b949350505050565b600061073182610664565b9050919050565b61074181610726565b811461074c57600080fd5b50565b60008135905061075e81610738565b92915050565b6000806040838503121561077b5761077a610606565b5b60006107898582860161074f565b925050602061079a85828601610622565b9150509250929050565b7f4e487b7100000000000000000000000000000000000000000000000000000000600052601160045260246000fd5b60006107de826105d2565b91506107e9836105d2565b9250827fffffffffffffffffffffffffffffffffffffffffffffffffffffffffffffffff0382111561081e5761081d6107a4565b5b828201905092915050565b6000610834826105d2565b915061083f836105d2565b925082821015610852576108516107a4565b5b82820390509291505056fea2646970667358221220f9420ff60a5b612a117c3eb2621719b9f84eda2c63e9d098f3781e758771e36664736f6c634300080f0033",
					"opcodes": "PUSH1 0x80 PUSH1 0x40 MSTORE CALLVALUE DUP1 ISZERO PUSH2 0x10 JUMPI PUSH1 0x0 DUP1 REVERT JUMPDEST POP PUSH2 0x893 DUP1 PUSH2 0x20 PUSH1 0x0 CODECOPY PUSH1 0x0 RETURN INVALID PUSH1 0x80 PUSH1 0x40 MSTORE PUSH1 0x4 CALLDATASIZE LT PUSH2 0x55 JUMPI PUSH1 0x0 CALLDATALOAD PUSH1 0xE0 SHR DUP1 PUSH4 0x12065FE0 EQ PUSH2 0x5A JUMPI DUP1 PUSH4 0x2E1A7D4D EQ PUSH2 0x85 JUMPI DUP1 PUSH4 0x6F9FB98A EQ PUSH2 0xAE JUMPI DUP1 PUSH4 0xD0E30DB0 EQ PUSH2 0xD9 JUMPI DUP1 PUSH4 0xE3D670D7 EQ PUSH2 0xE3 JUMPI DUP1 PUSH4 0xF3FEF3A3 EQ PUSH2 0x122 JUMPI JUMPDEST PUSH1 0x0 DUP1 REVERT JUMPDEST CALLVALUE DUP1 ISZERO PUSH2 0x66 JUMPI PUSH1 0x0 DUP1 REVERT JUMPDEST POP PUSH2 0x6F PUSH2 0x14B JUMP JUMPDEST PUSH1 0x40 MLOAD PUSH2 0x7C SWAP2 SWAP1 PUSH2 0x5EB JUMP JUMPDEST PUSH1 0x40 MLOAD DUP1 SWAP2 SUB SWAP1 RETURN JUMPDEST CALLVALUE DUP1 ISZERO PUSH2 0x91 JUMPI PUSH1 0x0 DUP1 REVERT JUMPDEST POP PUSH2 0xAC PUSH1 0x4 DUP1 CALLDATASIZE SUB DUP2 ADD SWAP1 PUSH2 0xA7 SWAP2 SWAP1 PUSH2 0x637 JUMP JUMPDEST PUSH2 0x194 JUMP JUMPDEST STOP JUMPDEST CALLVALUE DUP1 ISZERO PUSH2 0xBA JUMPI PUSH1 0x0 DUP1 REVERT JUMPDEST POP PUSH2 0xC3 PUSH2 0x1A1 JUMP JUMPDEST PUSH1 0x40 MLOAD PUSH2 0xD0 SWAP2 SWAP1 PUSH2 0x5EB JUMP JUMPDEST PUSH1 0x40 MLOAD DUP1 SWAP2 SUB SWAP1 RETURN JUMPDEST PUSH2 0xE1 PUSH2 0x1A9 JUMP JUMPDEST STOP JUMPDEST CALLVALUE DUP1 ISZERO PUSH2 0xEF JUMPI PUSH1 0x0 DUP1 REVERT JUMPDEST POP PUSH2 0x10A PUSH1 0x4 DUP1 CALLDATASIZE SUB DUP2 ADD SWAP1 PUSH2 0x105 SWAP2 SWAP1 PUSH2 0x6C2 JUMP JUMPDEST PUSH2 0x357 JUMP JUMPDEST PUSH1 0x40 MLOAD PUSH2 0x119 SWAP4 SWAP3 SWAP2 SWAP1 PUSH2 0x6EF JUMP JUMPDEST PUSH1 0x40 MLOAD DUP1 SWAP2 SUB SWAP1 RETURN JUMPDEST CALLVALUE DUP1 ISZERO PUSH2 0x12E JUMPI PUSH1 0x0 DUP1 REVERT JUMPDEST POP PUSH2 0x149 PUSH1 0x4 DUP1 CALLDATASIZE SUB DUP2 ADD SWAP1 PUSH2 0x144 SWAP2 SWAP1 PUSH2 0x764 JUMP JUMPDEST PUSH2 0x381 JUMP JUMPDEST STOP JUMPDEST PUSH1 0x0 DUP1 PUSH1 0x0 CALLER PUSH20 0xFFFFFFFFFFFFFFFFFFFFFFFFFFFFFFFFFFFFFFFF AND PUSH20 0xFFFFFFFFFFFFFFFFFFFFFFFFFFFFFFFFFFFFFFFF AND DUP2 MSTORE PUSH1 0x20 ADD SWAP1 DUP2 MSTORE PUSH1 0x20 ADD PUSH1 0x0 KECCAK256 PUSH1 0x0 ADD SLOAD SWAP1 POP SWAP1 JUMP JUMPDEST PUSH2 0x19E CALLER DUP3 PUSH2 0x381 JUMP JUMPDEST POP JUMP JUMPDEST PUSH1 0x0 SELFBALANCE SWAP1 POP SWAP1 JUMP JUMPDEST CALLVALUE PUSH1 0x0 DUP1 CALLER PUSH20 0xFFFFFFFFFFFFFFFFFFFFFFFFFFFFFFFFFFFFFFFF AND PUSH20 0xFFFFFFFFFFFFFFFFFFFFFFFFFFFFFFFFFFFFFFFF AND DUP2 MSTORE PUSH1 0x20 ADD SWAP1 DUP2 MSTORE PUSH1 0x20 ADD PUSH1 0x0 KECCAK256 PUSH1 0x0 ADD PUSH1 0x0 DUP3 DUP3 SLOAD PUSH2 0x1FA SWAP2 SWAP1 PUSH2 0x7D3 JUMP JUMPDEST SWAP3 POP POP DUP2 SWAP1 SSTORE POP PUSH1 0x0 DUP1 PUSH1 0x0 CALLER PUSH20 0xFFFFFFFFFFFFFFFFFFFFFFFFFFFFFFFFFFFFFFFF AND PUSH20 0xFFFFFFFFFFFFFFFFFFFFFFFFFFFFFFFFFFFFFFFF AND DUP2 MSTORE PUSH1 0x20 ADD SWAP1 DUP2 MSTORE PUSH1 0x20 ADD PUSH1 0x0 KECCAK256 PUSH1 0x1 ADD SLOAD SWAP1 POP CALLVALUE PUSH1 0x0 DUP1 CALLER PUSH20 0xFFFFFFFFFFFFFFFFFFFFFFFFFFFFFFFFFFFFFFFF AND PUSH20 0xFFFFFFFFFFFFFFFFFFFFFFFFFFFFFFFFFFFFFFFF AND DUP2 MSTORE PUSH1 0x20 ADD SWAP1 DUP2 MSTORE PUSH1 0x20 ADD PUSH1 0x0 KECCAK256 PUSH1 0x2 ADD PUSH1 0x0 DUP4 DUP2 MSTORE PUSH1 0x20 ADD SWAP1 DUP2 MSTORE PUSH1 0x20 ADD PUSH1 0x0 KECCAK256 PUSH1 0x0 ADD DUP2 SWAP1 SSTORE POP TIMESTAMP PUSH1 0x0 DUP1 CALLER PUSH20 0xFFFFFFFFFFFFFFFFFFFFFFFFFFFFFFFFFFFFFFFF AND PUSH20 0xFFFFFFFFFFFFFFFFFFFFFFFFFFFFFFFFFFFFFFFF AND DUP2 MSTORE PUSH1 0x20 ADD SWAP1 DUP2 MSTORE PUSH1 0x20 ADD PUSH1 0x0 KECCAK256 PUSH1 0x2 ADD PUSH1 0x0 DUP4 DUP2 MSTORE PUSH1 0x20 ADD SWAP1 DUP2 MSTORE PUSH1 0x20 ADD PUSH1 0x0 KECCAK256 PUSH1 0x1 ADD DUP2 SWAP1 SSTORE POP PUSH1 0x1 PUSH1 0x0 DUP1 CALLER PUSH20 0xFFFFFFFFFFFFFFFFFFFFFFFFFFFFFFFFFFFFFFFF AND PUSH20 0xFFFFFFFFFFFFFFFFFFFFFFFFFFFFFFFFFFFFFFFF AND DUP2 MSTORE PUSH1 0x20 ADD SWAP1 DUP2 MSTORE PUSH1 0x20 ADD PUSH1 0x0 KECCAK256 PUSH1 0x1 ADD PUSH1 0x0 DUP3 DUP3 SLOAD PUSH2 0x34D SWAP2 SWAP1 PUSH2 0x7D3 JUMP JUMPDEST SWAP3 POP POP DUP2 SWAP1 SSTORE POP POP JUMP JUMPDEST PUSH1 0x0 PUSH1 0x20 MSTORE DUP1 PUSH1 0x0 MSTORE PUSH1 0x40 PUSH1 0x0 KECCAK256 PUSH1 0x0 SWAP2 POP SWAP1 POP DUP1 PUSH1 0x0 ADD SLOAD SWAP1 DUP1 PUSH1 0x1 ADD SLOAD SWAP1 DUP1 PUSH1 0x3 ADD SLOAD SWAP1 POP DUP4 JUMP JUMPDEST PUSH1 0x0 DUP2 PUSH1 0x0 DUP1 CALLER PUSH20 0xFFFFFFFFFFFFFFFFFFFFFFFFFFFFFFFFFFFFFFFF AND PUSH20 0xFFFFFFFFFFFFFFFFFFFFFFFFFFFFFFFFFFFFFFFF AND DUP2 MSTORE PUSH1 0x20 ADD SWAP1 DUP2 MSTORE PUSH1 0x20 ADD PUSH1 0x0 KECCAK256 PUSH1 0x0 ADD SLOAD PUSH2 0x3D0 SWAP2 SWAP1 PUSH2 0x829 JUMP JUMPDEST LT ISZERO PUSH2 0x3DB JUMPI PUSH1 0x0 DUP1 REVERT JUMPDEST DUP1 PUSH1 0x0 DUP1 CALLER PUSH20 0xFFFFFFFFFFFFFFFFFFFFFFFFFFFFFFFFFFFFFFFF AND PUSH20 0xFFFFFFFFFFFFFFFFFFFFFFFFFFFFFFFFFFFFFFFF AND DUP2 MSTORE PUSH1 0x20 ADD SWAP1 DUP2 MSTORE PUSH1 0x20 ADD PUSH1 0x0 KECCAK256 PUSH1 0x0 ADD PUSH1 0x0 DUP3 DUP3 SLOAD PUSH2 0x42C SWAP2 SWAP1 PUSH2 0x829 JUMP JUMPDEST SWAP3 POP POP DUP2 SWAP1 SSTORE POP PUSH1 0x0 DUP1 PUSH1 0x0 CALLER PUSH20 0xFFFFFFFFFFFFFFFFFFFFFFFFFFFFFFFFFFFFFFFF AND PUSH20 0xFFFFFFFFFFFFFFFFFFFFFFFFFFFFFFFFFFFFFFFF AND DUP2 MSTORE PUSH1 0x20 ADD SWAP1 DUP2 MSTORE PUSH1 0x20 ADD PUSH1 0x0 KECCAK256 PUSH1 0x3 ADD SLOAD SWAP1 POP DUP2 PUSH1 0x0 DUP1 CALLER PUSH20 0xFFFFFFFFFFFFFFFFFFFFFFFFFFFFFFFFFFFFFFFF AND PUSH20 0xFFFFFFFFFFFFFFFFFFFFFFFFFFFFFFFFFFFFFFFF AND DUP2 MSTORE PUSH1 0x20 ADD SWAP1 DUP2 MSTORE PUSH1 0x20 ADD PUSH1 0x0 KECCAK256 PUSH1 0x4 ADD PUSH1 0x0 DUP4 DUP2 MSTORE PUSH1 0x20 ADD SWAP1 DUP2 MSTORE PUSH1 0x20 ADD PUSH1 0x0 KECCAK256 PUSH1 0x0 ADD DUP2 SWAP1 SSTORE POP TIMESTAMP PUSH1 0x0 DUP1 CALLER PUSH20 0xFFFFFFFFFFFFFFFFFFFFFFFFFFFFFFFFFFFFFFFF AND PUSH20 0xFFFFFFFFFFFFFFFFFFFFFFFFFFFFFFFFFFFFFFFF AND DUP2 MSTORE PUSH1 0x20 ADD SWAP1 DUP2 MSTORE PUSH1 0x20 ADD PUSH1 0x0 KECCAK256 PUSH1 0x4 ADD PUSH1 0x0 DUP4 DUP2 MSTORE PUSH1 0x20 ADD SWAP1 DUP2 MSTORE PUSH1 0x20 ADD PUSH1 0x0 KECCAK256 PUSH1 0x1 ADD DUP2 SWAP1 SSTORE POP PUSH1 0x1 PUSH1 0x0 DUP1 CALLER PUSH20 0xFFFFFFFFFFFFFFFFFFFFFFFFFFFFFFFFFFFFFFFF AND PUSH20 0xFFFFFFFFFFFFFFFFFFFFFFFFFFFFFFFFFFFFFFFF AND DUP2 MSTORE PUSH1 0x20 ADD SWAP1 DUP2 MSTORE PUSH1 0x20 ADD PUSH1 0x0 KECCAK256 PUSH1 0x3 ADD PUSH1 0x0 DUP3 DUP3 SLOAD PUSH2 0x57F SWAP2 SWAP1 PUSH2 0x7D3 JUMP JUMPDEST SWAP3 POP POP DUP2 SWAP1 SSTORE POP DUP3 PUSH20 0xFFFFFFFFFFFFFFFFFFFFFFFFFFFFFFFFFFFFFFFF AND PUSH2 0x8FC DUP4 SWAP1 DUP2 ISZERO MUL SWAP1 PUSH1 0x40 MLOAD PUSH1 0x0 PUSH1 0x40 MLOAD DUP1 DUP4 SUB DUP2 DUP6 DUP9 DUP9 CALL SWAP4 POP POP POP POP ISZERO DUP1 ISZERO PUSH2 0x5CC JUMPI RETURNDATASIZE PUSH1 0x0 DUP1 RETURNDATACOPY RETURNDATASIZE PUSH1 0x0 REVERT JUMPDEST POP POP POP POP JUMP JUMPDEST PUSH1 0x0 DUP2 SWAP1 POP SWAP2 SWAP1 POP JUMP JUMPDEST PUSH2 0x5E5 DUP2 PUSH2 0x5D2 JUMP JUMPDEST DUP3 MSTORE POP POP JUMP JUMPDEST PUSH1 0x0 PUSH1 0x20 DUP3 ADD SWAP1 POP PUSH2 0x600 PUSH1 0x0 DUP4 ADD DUP5 PUSH2 0x5DC JUMP JUMPDEST SWAP3 SWAP2 POP POP JUMP JUMPDEST PUSH1 0x0 DUP1 REVERT JUMPDEST PUSH2 0x614 DUP2 PUSH2 0x5D2 JUMP JUMPDEST DUP2 EQ PUSH2 0x61F JUMPI PUSH1 0x0 DUP1 REVERT JUMPDEST POP JUMP JUMPDEST PUSH1 0x0 DUP2 CALLDATALOAD SWAP1 POP PUSH2 0x631 DUP2 PUSH2 0x60B JUMP JUMPDEST SWAP3 SWAP2 POP POP JUMP JUMPDEST PUSH1 0x0 PUSH1 0x20 DUP3 DUP5 SUB SLT ISZERO PUSH2 0x64D JUMPI PUSH2 0x64C PUSH2 0x606 JUMP JUMPDEST JUMPDEST PUSH1 0x0 PUSH2 0x65B DUP5 DUP3 DUP6 ADD PUSH2 0x622 JUMP JUMPDEST SWAP2 POP POP SWAP3 SWAP2 POP POP JUMP JUMPDEST PUSH1 0x0 PUSH20 0xFFFFFFFFFFFFFFFFFFFFFFFFFFFFFFFFFFFFFFFF DUP3 AND SWAP1 POP SWAP2 SWAP1 POP JUMP JUMPDEST PUSH1 0x0 PUSH2 0x68F DUP3 PUSH2 0x664 JUMP JUMPDEST SWAP1 POP SWAP2 SWAP1 POP JUMP JUMPDEST PUSH2 0x69F DUP2 PUSH2 0x684 JUMP JUMPDEST DUP2 EQ PUSH2 0x6AA JUMPI PUSH1 0x0 DUP1 REVERT JUMPDEST POP JUMP JUMPDEST PUSH1 0x0 DUP2 CALLDATALOAD SWAP1 POP PUSH2 0x6BC DUP2 PUSH2 0x696 JUMP JUMPDEST SWAP3 SWAP2 POP POP JUMP JUMPDEST PUSH1 0x0 PUSH1 0x20 DUP3 DUP5 SUB SLT ISZERO PUSH2 0x6D8 JUMPI PUSH2 0x6D7 PUSH2 0x606 JUMP JUMPDEST JUMPDEST PUSH1 0x0 PUSH2 0x6E6 DUP5 DUP3 DUP6 ADD PUSH2 0x6AD JUMP JUMPDEST SWAP2 POP POP SWAP3 SWAP2 POP POP JUMP JUMPDEST PUSH1 0x0 PUSH1 0x60 DUP3 ADD SWAP1 POP PUSH2 0x704 PUSH1 0x0 DUP4 ADD DUP7 PUSH2 0x5DC JUMP JUMPDEST PUSH2 0x711 PUSH1 0x20 DUP4 ADD DUP6 PUSH2 0x5DC JUMP JUMPDEST PUSH2 0x71E PUSH1 0x40 DUP4 ADD DUP5 PUSH2 0x5DC JUMP JUMPDEST SWAP5 SWAP4 POP POP POP POP JUMP JUMPDEST PUSH1 0x0 PUSH2 0x731 DUP3 PUSH2 0x664 JUMP JUMPDEST SWAP1 POP SWAP2 SWAP1 POP JUMP JUMPDEST PUSH2 0x741 DUP2 PUSH2 0x726 JUMP JUMPDEST DUP2 EQ PUSH2 0x74C JUMPI PUSH1 0x0 DUP1 REVERT JUMPDEST POP JUMP JUMPDEST PUSH1 0x0 DUP2 CALLDATALOAD SWAP1 POP PUSH2 0x75E DUP2 PUSH2 0x738 JUMP JUMPDEST SWAP3 SWAP2 POP POP JUMP JUMPDEST PUSH1 0x0 DUP1 PUSH1 0x40 DUP4 DUP6 SUB SLT ISZERO PUSH2 0x77B JUMPI PUSH2 0x77A PUSH2 0x606 JUMP JUMPDEST JUMPDEST PUSH1 0x0 PUSH2 0x789 DUP6 DUP3 DUP7 ADD PUSH2 0x74F JUMP JUMPDEST SWAP3 POP POP PUSH1 0x20 PUSH2 0x79A DUP6 DUP3 DUP7 ADD PUSH2 0x622 JUMP JUMPDEST SWAP2 POP POP SWAP3 POP SWAP3 SWAP1 POP JUMP JUMPDEST PUSH32 0x4E487B7100000000000000000000000000000000000000000000000000000000 PUSH1 0x0 MSTORE PUSH1 0x11 PUSH1 0x4 MSTORE PUSH1 0x24 PUSH1 0x0 REVERT JUMPDEST PUSH1 0x0 PUSH2 0x7DE DUP3 PUSH2 0x5D2 JUMP JUMPDEST SWAP2 POP PUSH2 0x7E9 DUP4 PUSH2 0x5D2 JUMP JUMPDEST SWAP3 POP DUP3 PUSH32 0xFFFFFFFFFFFFFFFFFFFFFFFFFFFFFFFFFFFFFFFFFFFFFFFFFFFFFFFFFFFFFFFF SUB DUP3 GT ISZERO PUSH2 0x81E JUMPI PUSH2 0x81D PUSH2 0x7A4 JUMP JUMPDEST JUMPDEST DUP3 DUP3 ADD SWAP1 POP SWAP3 SWAP2 POP POP JUMP JUMPDEST PUSH1 0x0 PUSH2 0x834 DUP3 PUSH2 0x5D2 JUMP JUMPDEST SWAP2 POP PUSH2 0x83F DUP4 PUSH2 0x5D2 JUMP JUMPDEST SWAP3 POP DUP3 DUP3 LT ISZERO PUSH2 0x852 JUMPI PUSH2 0x851 PUSH2 0x7A4 JUMP JUMPDEST JUMPDEST DUP3 DUP3 SUB SWAP1 POP SWAP3 SWAP2 POP POP JUMP INVALID LOG2 PUSH5 0x6970667358 0x22 SLT KECCAK256 0xF9 TIMESTAMP 0xF 0xF6 EXP JUMPDEST PUSH2 0x2A11 PUSH29 0x3EB2621719B9F84EDA2C63E9D098F3781E758771E36664736F6C634300 ADDMOD 0xF STOP CALLER "
				},
				"gasEstimates": {
					"creation": {
						"codeDepositCost": "439000",
						"executionCost": "474",
						"totalCost": "439474"
					},
					"external": {
						"balance(address)": "infinite",
						"deposit()": "infinite",
						"getBalance()": "2510",
						"getContractBalance()": "361",
						"withdraw(address,uint256)": "infinite",
						"withdraw(uint256)": "infinite"
					}
				},
				"methodIdentifiers": {
					"balance(address)": "e3d670d7",
					"deposit()": "d0e30db0",
					"getBalance()": "12065fe0",
					"getContractBalance()": "6f9fb98a",
					"withdraw(address,uint256)": "f3fef3a3",
					"withdraw(uint256)": "2e1a7d4d"
				}
			},
			"storageLayout": {
				"storage": [
					{
						"astId": 28,
						"contract": "contracts/WalletStruct.sol:WalletStructContract",
						"label": "balance",
						"offset": 0,
						"slot": "0",
						"type": "t_mapping(t_address,t_struct(Balance)23_storage)"
					}
				],
				"types": {
					"t_address": {
						"encoding": "inplace",
						"label": "address",
						"numberOfBytes": "20"
					},
					"t_mapping(t_address,t_struct(Balance)23_storage)": {
						"encoding": "mapping",
						"key": "t_address",
						"label": "mapping(address => struct WalletStructContract.Balance)",
						"numberOfBytes": "32",
						"value": "t_struct(Balance)23_storage"
					},
					"t_mapping(t_uint256,t_struct(Transaction)6_storage)": {
						"encoding": "mapping",
						"key": "t_uint256",
						"label": "mapping(uint256 => struct WalletStructContract.Transaction)",
						"numberOfBytes": "32",
						"value": "t_struct(Transaction)6_storage"
					},
					"t_struct(Balance)23_storage": {
						"encoding": "inplace",
						"label": "struct WalletStructContract.Balance",
						"members": [
							{
								"astId": 8,
								"contract": "contracts/WalletStruct.sol:WalletStructContract",
								"label": "total",
								"offset": 0,
								"slot": "0",
								"type": "t_uint256"
							},
							{
								"astId": 10,
								"contract": "contracts/WalletStruct.sol:WalletStructContract",
								"label": "numDeposits",
								"offset": 0,
								"slot": "1",
								"type": "t_uint256"
							},
							{
								"astId": 15,
								"contract": "contracts/WalletStruct.sol:WalletStructContract",
								"label": "deposits",
								"offset": 0,
								"slot": "2",
								"type": "t_mapping(t_uint256,t_struct(Transaction)6_storage)"
							},
							{
								"astId": 17,
								"contract": "contracts/WalletStruct.sol:WalletStructContract",
								"label": "numWithdrawals",
								"offset": 0,
								"slot": "3",
								"type": "t_uint256"
							},
							{
								"astId": 22,
								"contract": "contracts/WalletStruct.sol:WalletStructContract",
								"label": "withdrawals",
								"offset": 0,
								"slot": "4",
								"type": "t_mapping(t_uint256,t_struct(Transaction)6_storage)"
							}
						],
						"numberOfBytes": "160"
					},
					"t_struct(Transaction)6_storage": {
						"encoding": "inplace",
						"label": "struct WalletStructContract.Transaction",
						"members": [
							{
								"astId": 3,
								"contract": "contracts/WalletStruct.sol:WalletStructContract",
								"label": "amount",
								"offset": 0,
								"slot": "0",
								"type": "t_uint256"
							},
							{
								"astId": 5,
								"contract": "contracts/WalletStruct.sol:WalletStructContract",
								"label": "timestamp",
								"offset": 0,
								"slot": "1",
								"type": "t_uint256"
							}
						],
						"numberOfBytes": "64"
					},
					"t_uint256": {
						"encoding": "inplace",
						"label": "uint256",
						"numberOfBytes": "32"
					}
				}
			},
			"userdoc": {
				"kind": "user",
				"methods": {},
				"version": 1
			}
		}
	}
}